{
  "contractName": "SnailMarket",
  "abi": [
    {
      "inputs": [],
      "payable": false,
      "stateMutability": "nonpayable",
      "type": "constructor"
    },
    {
      "anonymous": false,
      "inputs": [
        {
          "indexed": true,
          "internalType": "uint256",
          "name": "id",
          "type": "uint256"
        },
        {
          "indexed": false,
          "internalType": "string",
          "name": "name",
          "type": "string"
        },
        {
          "indexed": false,
          "internalType": "uint256",
          "name": "price",
          "type": "uint256"
        },
        {
          "indexed": false,
          "internalType": "uint256",
          "name": "stock",
          "type": "uint256"
        }
      ],
      "name": "SnailAdded",
      "type": "event"
    },
    {
      "anonymous": false,
      "inputs": [
        {
          "indexed": true,
          "internalType": "uint256",
          "name": "id",
          "type": "uint256"
        },
        {
          "indexed": false,
          "internalType": "uint256",
          "name": "oldStock",
          "type": "uint256"
        },
        {
          "indexed": false,
          "internalType": "uint256",
          "name": "newStock",
          "type": "uint256"
        }
      ],
      "name": "StockUpdated",
      "type": "event"
    },
    {
      "anonymous": false,
      "inputs": [
        {
          "indexed": true,
          "internalType": "uint256",
          "name": "snailId",
          "type": "uint256"
        },
        {
          "indexed": true,
          "internalType": "address",
          "name": "buyer",
          "type": "address"
        },
        {
          "indexed": false,
          "internalType": "uint256",
          "name": "quantity",
          "type": "uint256"
        },
        {
          "indexed": false,
          "internalType": "uint256",
          "name": "totalCost",
          "type": "uint256"
        },
        {
          "indexed": false,
          "internalType": "uint256",
          "name": "timestamp",
          "type": "uint256"
        }
      ],
      "name": "Transaction",
      "type": "event"
    },
    {
      "constant": true,
      "inputs": [],
      "name": "nextSnailId",
      "outputs": [
        {
          "internalType": "uint256",
          "name": "",
          "type": "uint256"
        }
      ],
      "payable": false,
      "stateMutability": "view",
      "type": "function"
    },
    {
      "constant": true,
      "inputs": [],
      "name": "owner",
      "outputs": [
        {
          "internalType": "address payable",
          "name": "",
          "type": "address"
        }
      ],
      "payable": false,
      "stateMutability": "view",
      "type": "function"
    },
    {
      "constant": false,
      "inputs": [
        {
          "internalType": "string",
          "name": "name",
          "type": "string"
        },
        {
          "internalType": "uint256",
          "name": "price",
          "type": "uint256"
        },
        {
          "internalType": "uint256",
          "name": "stock",
          "type": "uint256"
        }
      ],
      "name": "addSnail",
      "outputs": [],
      "payable": false,
      "stateMutability": "nonpayable",
      "type": "function"
    },
    {
      "constant": false,
      "inputs": [
        {
          "internalType": "uint256",
          "name": "snailId",
          "type": "uint256"
        },
        {
          "internalType": "uint256",
          "name": "stock",
          "type": "uint256"
        }
      ],
      "name": "updateStock",
      "outputs": [],
      "payable": false,
      "stateMutability": "nonpayable",
      "type": "function"
    },
    {
      "constant": false,
      "inputs": [
        {
          "internalType": "uint256",
          "name": "snailId",
          "type": "uint256"
        },
        {
          "internalType": "uint256",
          "name": "quantity",
          "type": "uint256"
        }
      ],
      "name": "buySnails",
      "outputs": [],
      "payable": true,
      "stateMutability": "payable",
      "type": "function"
    },
    {
      "constant": false,
      "inputs": [],
      "name": "withdrawFunds",
      "outputs": [],
      "payable": false,
      "stateMutability": "nonpayable",
      "type": "function"
    },
    {
      "constant": true,
      "inputs": [
        {
          "internalType": "uint256",
          "name": "snailId",
          "type": "uint256"
        }
      ],
      "name": "getSnailDetails",
      "outputs": [
        {
          "internalType": "string",
          "name": "name",
          "type": "string"
        },
        {
          "internalType": "uint256",
          "name": "price",
          "type": "uint256"
        },
        {
          "internalType": "uint256",
          "name": "stock",
          "type": "uint256"
        }
      ],
      "payable": false,
      "stateMutability": "view",
      "type": "function"
    },
    {
      "constant": true,
      "inputs": [],
      "name": "getAllSnails",
      "outputs": [
        {
          "internalType": "uint256[]",
          "name": "ids",
          "type": "uint256[]"
        },
        {
          "internalType": "string[]",
          "name": "names",
          "type": "string[]"
        },
        {
          "internalType": "uint256[]",
          "name": "prices",
          "type": "uint256[]"
        },
        {
          "internalType": "uint256[]",
          "name": "stocks",
          "type": "uint256[]"
        }
      ],
      "payable": false,
      "stateMutability": "view",
      "type": "function"
    }
  ],
  "bytecode": "0x608060405234801561001057600080fd5b50336000806101000a81548173ffffffffffffffffffffffffffffffffffffffff021916908373ffffffffffffffffffffffffffffffffffffffff160217905550611661806100606000396000f3fe60806040526004361061007b5760003560e01c8063755c00341161004e578063755c00341461011b5780638da5cb5b146101495780639dfc3dd114610174578063d2bc92711461019d5761007b565b8063120733701461008057806324600fc3146100a95780633da99be0146100c05780634e959cf4146100ff575b600080fd5b34801561008c57600080fd5b506100a760048036036100a29190810190610cca565b6101c8565b005b3480156100b557600080fd5b506100be6103ec565b005b3480156100cc57600080fd5b506100e760048036036100e29190810190610d31565b61052e565b6040516100f69392919061127c565b60405180910390f35b61011960048036036101149190810190610d5a565b610648565b005b34801561012757600080fd5b506101306107e7565b604051610140949392919061121b565b60405180910390f35b34801561015557600080fd5b5061015e610a15565b60405161016b9190611200565b60405180910390f35b34801561018057600080fd5b5061019b60048036036101969190810190610d5a565b610a3a565b005b3480156101a957600080fd5b506101b2610bb6565b6040516101bf91906113fa565b60405180910390f35b6000809054906101000a900473ffffffffffffffffffffffffffffffffffffffff1673ffffffffffffffffffffffffffffffffffffffff163373ffffffffffffffffffffffffffffffffffffffff1614610257576040517f08c379a000000000000000000000000000000000000000000000000000000000815260040161024e906113ba565b60405180910390fd5b600083511161029b576040517f08c379a00000000000000000000000000000000000000000000000000000000081526004016102929061135a565b60405180910390fd5b600082116102de576040517f08c379a00000000000000000000000000000000000000000000000000000000081526004016102d5906112da565b60405180910390fd5b60008111610321576040517f08c379a0000000000000000000000000000000000000000000000000000000008152600401610318906113da565b60405180910390fd5b604051806080016040528060025481526020018481526020018381526020018281525060016000600254815260200190815260200160002060008201518160000155602082015181600101908051906020019061037f929190610bbc565b5060408201518160020155606082015181600301559050506002547f507fc082f64acec12e815ff66ef94dacbec03cbe477d88f547be7d39f074ef178484846040516103cd9392919061127c565b60405180910390a2600260008154809291906001019190505550505050565b6000809054906101000a900473ffffffffffffffffffffffffffffffffffffffff1673ffffffffffffffffffffffffffffffffffffffff163373ffffffffffffffffffffffffffffffffffffffff161461047b576040517f08c379a0000000000000000000000000000000000000000000000000000000008152600401610472906113ba565b60405180910390fd5b6000479050600081116104c3576040517f08c379a00000000000000000000000000000000000000000000000000000000081526004016104ba9061133a565b60405180910390fd5b6000809054906101000a900473ffffffffffffffffffffffffffffffffffffffff1673ffffffffffffffffffffffffffffffffffffffff166108fc829081150290604051600060405180830381858888f1935050505015801561052a573d6000803e3d6000fd5b5050565b6060600080600060016000868152602001908152602001600020905084816000015414610590576040517f08c379a00000000000000000000000000000000000000000000000000000000081526004016105879061139a565b60405180910390fd5b8060010181600201548260030154828054600181600116156101000203166002900480601f0160208091040260200160405190810160405280929190818152602001828054600181600116156101000203166002900480156106335780601f1061060857610100808354040283529160200191610633565b820191906000526020600020905b81548152906001019060200180831161061657829003601f168201915b50505050509250935093509350509193909250565b6000811161068b576040517f08c379a00000000000000000000000000000000000000000000000000000000081526004016106829061137a565b60405180910390fd5b6000600160008481526020019081526020016000209050828160000154146106e8576040517f08c379a00000000000000000000000000000000000000000000000000000000081526004016106df9061139a565b60405180910390fd5b806003015482111561072f576040517f08c379a00000000000000000000000000000000000000000000000000000000081526004016107269061131a565b60405180910390fd5b600082826002015402905080341461077c576040517f08c379a0000000000000000000000000000000000000000000000000000000008152600401610773906112ba565b60405180910390fd5b8282600301600082825403925050819055503373ffffffffffffffffffffffffffffffffffffffff16847f4d8fb848b535a2acf60c4f988de64f35caa2a0ca52dba4f94ab3df17337cc8928584426040516107d99392919061143e565b60405180910390a350505050565b60608060608060025460405190808252806020026020018201604052801561081e5781602001602082028038833980820191505090505b50935060025460405190808252806020026020018201604052801561085757816020015b60608152602001906001900390816108425790505b50925060025460405190808252806020026020018201604052801561088b5781602001602082028038833980820191505090505b5091506002546040519080825280602002602001820160405280156108bf5781602001602082028038833980820191505090505b50905060008090505b600254811015610a0257600060016000838152602001908152602001600020905080600001548683815181106108fa57fe5b602002602001018181525050806001018054600181600116156101000203166002900480601f01602080910402602001604051908101604052809291908181526020018280546001816001161561010002031660029004801561099e5780601f106109735761010080835404028352916020019161099e565b820191906000526020600020905b81548152906001019060200180831161098157829003601f168201915b50505050508583815181106109af57fe5b602002602001018190525080600201548483815181106109cb57fe5b60200260200101818152505080600301548383815181106109e857fe5b6020026020010181815250505080806001019150506108c8565b5083838383935093509350935090919293565b6000809054906101000a900473ffffffffffffffffffffffffffffffffffffffff1681565b6000809054906101000a900473ffffffffffffffffffffffffffffffffffffffff1673ffffffffffffffffffffffffffffffffffffffff163373ffffffffffffffffffffffffffffffffffffffff1614610ac9576040517f08c379a0000000000000000000000000000000000000000000000000000000008152600401610ac0906113ba565b60405180910390fd5b600060016000848152602001908152602001600020905082816000015414610b26576040517f08c379a0000000000000000000000000000000000000000000000000000000008152600401610b1d9061139a565b60405180910390fd5b6000821015610b6a576040517f08c379a0000000000000000000000000000000000000000000000000000000008152600401610b61906112fa565b60405180910390fd5b827f367b4674c3f33d01759accec115296aa4040b06aa011f14b813546486c85ae30826003015484604051610ba0929190611415565b60405180910390a2818160030181905550505050565b60025481565b828054600181600116156101000203166002900490600052602060002090601f016020900481019282601f10610bfd57805160ff1916838001178555610c2b565b82800160010185558215610c2b579182015b82811115610c2a578251825591602001919060010190610c0f565b5b509050610c389190610c3c565b5090565b610c5e91905b80821115610c5a576000816000905550600101610c42565b5090565b90565b600082601f830112610c7257600080fd5b8135610c85610c80826114a2565b611475565b91508082526020830160208301858383011115610ca157600080fd5b610cac8382846115b4565b50505092915050565b600081359050610cc481611607565b92915050565b600080600060608486031215610cdf57600080fd5b600084013567ffffffffffffffff811115610cf957600080fd5b610d0586828701610c61565b9350506020610d1686828701610cb5565b9250506040610d2786828701610cb5565b9150509250925092565b600060208284031215610d4357600080fd5b6000610d5184828501610cb5565b91505092915050565b60008060408385031215610d6d57600080fd5b6000610d7b85828601610cb5565b9250506020610d8c85828601610cb5565b9150509250929050565b6000610da28383610edd565b905092915050565b6000610db683836111e2565b60208301905092915050565b610dcb81611578565b82525050565b6000610ddc826114ee565b610de68185611534565b935083602082028501610df8856114ce565b8060005b85811015610e345784840389528151610e158582610d96565b9450610e208361151a565b925060208a01995050600181019050610dfc565b50829750879550505050505092915050565b6000610e51826114f9565b610e5b8185611545565b9350610e66836114de565b8060005b83811015610e97578151610e7e8882610daa565b9750610e8983611527565b925050600181019050610e6a565b5085935050505092915050565b6000610eaf8261150f565b610eb98185611567565b9350610ec98185602086016115c3565b610ed2816115f6565b840191505092915050565b6000610ee882611504565b610ef28185611556565b9350610f028185602086016115c3565b610f0b816115f6565b840191505092915050565b6000610f23601283611567565b91507f496e636f7272656374204554482073656e7400000000000000000000000000006000830152602082019050919050565b6000610f63601f83611567565b91507f5072696365206d7573742062652067726561746572207468616e207a65726f006000830152602082019050919050565b6000610fa3601883611567565b91507f53746f636b2063616e6e6f74206265206e6567617469766500000000000000006000830152602082019050919050565b6000610fe3601283611567565b91507f496e73756666696369656e742073746f636b00000000000000000000000000006000830152602082019050919050565b6000611023601483611567565b91507f4e6f2066756e647320746f2077697468647261770000000000000000000000006000830152602082019050919050565b6000611063601a83611567565b91507f536e61696c206e616d652063616e6e6f7420626520656d7074790000000000006000830152602082019050919050565b60006110a3602283611567565b91507f5175616e74697479206d7573742062652067726561746572207468616e207a6560008301527f726f0000000000000000000000000000000000000000000000000000000000006020830152604082019050919050565b6000611109601483611567565b91507f536e61696c20646f6573206e6f742065786973740000000000000000000000006000830152602082019050919050565b6000611149602283611567565b91507f4f6e6c79206f776e65722063616e20706572666f726d2074686973206163746960008301527f6f6e0000000000000000000000000000000000000000000000000000000000006020830152604082019050919050565b60006111af601f83611567565b91507f53746f636b206d7573742062652067726561746572207468616e207a65726f006000830152602082019050919050565b6111eb816115aa565b82525050565b6111fa816115aa565b82525050565b60006020820190506112156000830184610dc2565b92915050565b600060808201905081810360008301526112358187610e46565b905081810360208301526112498186610dd1565b9050818103604083015261125d8185610e46565b905081810360608301526112718184610e46565b905095945050505050565b600060608201905081810360008301526112968186610ea4565b90506112a560208301856111f1565b6112b260408301846111f1565b949350505050565b600060208201905081810360008301526112d381610f16565b9050919050565b600060208201905081810360008301526112f381610f56565b9050919050565b6000602082019050818103600083015261131381610f96565b9050919050565b6000602082019050818103600083015261133381610fd6565b9050919050565b6000602082019050818103600083015261135381611016565b9050919050565b6000602082019050818103600083015261137381611056565b9050919050565b6000602082019050818103600083015261139381611096565b9050919050565b600060208201905081810360008301526113b3816110fc565b9050919050565b600060208201905081810360008301526113d38161113c565b9050919050565b600060208201905081810360008301526113f3816111a2565b9050919050565b600060208201905061140f60008301846111f1565b92915050565b600060408201905061142a60008301856111f1565b61143760208301846111f1565b9392505050565b600060608201905061145360008301866111f1565b61146060208301856111f1565b61146d60408301846111f1565b949350505050565b6000604051905081810181811067ffffffffffffffff8211171561149857600080fd5b8060405250919050565b600067ffffffffffffffff8211156114b957600080fd5b601f19601f8301169050602081019050919050565b6000819050602082019050919050565b6000819050602082019050919050565b600081519050919050565b600081519050919050565b600081519050919050565b600081519050919050565b6000602082019050919050565b6000602082019050919050565b600082825260208201905092915050565b600082825260208201905092915050565b600082825260208201905092915050565b600082825260208201905092915050565b60006115838261158a565b9050919050565b600073ffffffffffffffffffffffffffffffffffffffff82169050919050565b6000819050919050565b82818337600083830152505050565b60005b838110156115e15780820151818401526020810190506115c6565b838111156115f0576000848401525b50505050565b6000601f19601f8301169050919050565b611610816115aa565b811461161b57600080fd5b5056fea365627a7a723158205ed11d19cd11fea92eb6d741c39ea086c734b8ea26bb23bd969dadfc86ffcf3f6c6578706572696d656e74616cf564736f6c63430005100040",
  "source": "// SPDX-License-Identifier: MIT\r\npragma solidity ^0.5.16;\r\npragma experimental ABIEncoderV2;\r\ncontract SnailMarket {\r\n    struct Snail {\r\n        uint256 id;\r\n        string name;\r\n        uint256 price; // Price in wei\r\n        uint256 stock;\r\n    }\r\n\r\n    event SnailAdded(uint256 indexed id, string name, uint256 price, uint256 stock);\r\n    event StockUpdated(uint256 indexed id, uint256 oldStock, uint256 newStock);\r\n    event Transaction(\r\n        uint256 indexed snailId,\r\n        address indexed buyer,\r\n        uint256 quantity,\r\n        uint256 totalCost,\r\n        uint256 timestamp\r\n    );\r\n\r\n    address payable public owner;\r\n    mapping(uint256 => Snail) private snails;\r\n    uint256 public nextSnailId;\r\n\r\n    modifier onlyOwner() {\r\n        require(msg.sender == owner, \"Only owner can perform this action\");\r\n        _;\r\n    }\r\n\r\n    constructor() public{\r\n        owner = msg.sender;\r\n    }\r\n\r\n    // Add a new type of snail\r\n    function addSnail(string memory name, uint256 price, uint256 stock) public onlyOwner {\r\n        require(bytes(name).length > 0, \"Snail name cannot be empty\");\r\n        require(price > 0, \"Price must be greater than zero\");\r\n        require(stock > 0, \"Stock must be greater than zero\");\r\n\r\n        snails[nextSnailId] = Snail(nextSnailId, name, price, stock);\r\n        emit SnailAdded(nextSnailId, name, price, stock);\r\n        nextSnailId++;\r\n    }\r\n\r\n    // Update stock for a specific snail\r\n    function updateStock(uint256 snailId, uint256 stock) public onlyOwner {\r\n        Snail storage snail = snails[snailId];\r\n        require(snail.id == snailId, \"Snail does not exist\");\r\n        require(stock >= 0, \"Stock cannot be negative\");\r\n\r\n        emit StockUpdated(snailId, snail.stock, stock);\r\n        snail.stock = stock;\r\n    }\r\n\r\n    // Buy snails with automatic cost validation\r\n    function buySnails(uint256 snailId, uint256 quantity) public payable {\r\n        require(quantity > 0, \"Quantity must be greater than zero\");\r\n\r\n        Snail storage snail = snails[snailId];\r\n        require(snail.id == snailId, \"Snail does not exist\");\r\n        require(quantity <= snail.stock, \"Insufficient stock\");\r\n\r\n        uint256 totalCost = snail.price * quantity;\r\n        require(msg.value == totalCost, \"Incorrect ETH sent\");\r\n\r\n        snail.stock -= quantity;\r\n\r\n        emit Transaction(snailId, msg.sender, quantity, totalCost, block.timestamp);\r\n    }\r\n\r\n    // Withdraw funds collected from sales\r\n    function withdrawFunds() public onlyOwner {\r\n        uint256 balance = address(this).balance;\r\n        require(balance > 0, \"No funds to withdraw\");\r\n        owner.transfer(balance); // Safe to use in Solidity 0.5.16\r\n    }\r\n\r\n\r\n\r\n    // Get details of a specific snail\r\n    function getSnailDetails(uint256 snailId)\r\n    public\r\n    view\r\n    returns (string memory name, uint256 price, uint256 stock)\r\n    {\r\n        Snail storage snail = snails[snailId];\r\n        require(snail.id == snailId, \"Snail does not exist\");\r\n        return (snail.name, snail.price, snail.stock);\r\n    }\r\n\r\n    // Get all snails as an array\r\n    function getAllSnails()\r\n    public\r\n    view\r\n    returns (uint256[] memory ids, string[] memory names, uint256[] memory prices, uint256[] memory stocks)\r\n    {\r\n        ids = new uint256[](nextSnailId);\r\n        names = new string[](nextSnailId);\r\n        prices = new uint256[](nextSnailId);\r\n        stocks = new uint256[](nextSnailId);\r\n\r\n        for (uint256 i = 0; i < nextSnailId; i++) {\r\n            Snail storage snail = snails[i];\r\n            ids[i] = snail.id;\r\n            names[i] = snail.name;\r\n            prices[i] = snail.price;\r\n            stocks[i] = snail.stock;\r\n        }\r\n\r\n        return (ids, names, prices, stocks);\r\n    }\r\n}\r\n",
  "sourcePath": "C:\\Users\\gamer\\Desktop\\ENIS\\halazoun\\contracts\\SnailMarket.sol",
  "compiler": {
    "name": "solc",
    "version": "0.5.16+commit.9c3226ce.Emscripten.clang"
  },
  "schemaVersion": "3.4.16",
  "updatedAt": "2024-12-07T01:42:54.733Z",
  "networkType": "ethereum",
  "devdoc": {
    "methods": {}
  },
  "userdoc": {
    "methods": {}
  }
}